:020000040000FA
:10000000000000EB240000EB2C008FE2000C90E8D5
:1000100000A08AE000B08BE001704AE20B005AE1D8
:100020000000001A1C0000EB0F00BAE818E04FE2D5
:10003000010013E303F0471013FF2FE10402000057
:10004000140200000030B0E30040B0E30050B0E321
:100050000060B0E3102052E27800A128FCFFFF8A84
:10006000822EB0E13000A128003081451EFF2FE133
:1000700001C08FE21CFF2FE11FB5059886460FBC1B
:10008000009C02B07047000001C08FE21CFF2FE10E
:1000900030B47546AE4630BC70470000430000EBFC
:1000A0000210A0E1F1FFFFEB1CC09FE50FC08CE048
:1000B00001001CE30DE08F120FE0A0011CFF2FE1F7
:1000C00001C08FE21CFF2FE100F0A2F850000000F9
:1000D0007847C04603002DE9EAFFFFEB0300BDE8C7
:1000E000500000EB0C009FE50C109FE504209FE5FD
:1000F00008309FE51EFF2FE16000004060040040D3
:10010000600000407700A0E394109FE5080081E5BF
:100110000000C1E1080090E5080081E51400A0E3BB
:10012000040081E51D0000EA74009FE5000090E5F1
:10013000080010E30500001A0100A0E360109FE52D
:10014000040081E50200A0E30C0081E5040000EA60
:100150000200A0E348109FE5040081E50100A0E350
:100160000C0081E538009FE5000090E5800010E379
:100170000500001A2000A0E324109FE5040081E59B
:100180004000A0E30C0081E5040000EA4000A0E389
:100190000C109FE5040081E52000A0E30C0081E540
:1001A000E0FFFFEA008002E0704770477047000000
:1001B0000E50A0E1180000EB05E0A0E10050B0E116
:1001C0000D10A0E10A30A0E10700C0E300D0A0E1DB
:1001D00060D08DE220402DE9C1FFFFEB2040BDE85B
:1001E0000060A0E30070A0E30080A0E300B0A0E303
:1001F0000710C1E305C0A0E1C009ACE8C009ACE844
:10020000C009ACE8C009ACE801D0A0E11EFF2FE1B5
:100210000400C046C0462000FFF75AFF00009FE5DB
:100220001EFF2FE10000004001C08FE21CFF2FE104
:1002300001491820ABDFFEE7260002001EFF2FE178
:100240005002000000000040E804000044000000EC
:0400000500000000F7
:00000001FF
